:100000000C9434000C943E000C943E000C943E0082
:100010000C943E000C943E000C943E000C943E0068
:100020000C943E000C943E000C943E000C943E0058
:100030000C943E000C943E000C943E000C943E0048
:100040000C943E000C943E000C943E000C943E0038
:100050000C943E000C943E000C943E000C943E0028
:100060000C943E000C943E0011241FBECFEFD8E04C
:10007000DEBFCDBF0E9467000C947D000C94000091
:10008000FC0116BC84B5826084BD84B58E7F84BDBE
:1000900085B5836085BD85B58B7F85BD89EF87BDBF
:1000A00020E030E007C0A99BFECF95B3926095BBDE
:1000B0002F5F3F4F68EE73E0E69FA001E79F500D72
:1000C000F69F500D11242417350768F3089584B165
:1000D000876084B981E085B98AE090E00E944000A1
:1000E00082E085B983E090E00E94400084E085B919
:0E00F0008AE090E00E944000EDCFF894FFCF30
:00000001FF
